:100000000C945D000C9485000C9485000C94850084
:100010000C9485000C9485000C9485000C9485004C
:100020000C9485000C9485000C9485000C9485003C
:100030000C9485000C9485000C9485000C9485002C
:100040000C94DB020C9485000C944B030C94250358
:100050000C9485000C9485000C9485000C9485000C
:100060000C9485000C94850000000008000201003B
:100070000003040700000000000000000000000072
:10008000250028002B0000000000240027002A0083
:10009000040404040404040402020202020203032E
:1000A0000303030301020408102040800102040836
:1000B0001020010204081020EB0611241FBECFEF10
:1000C000D8E0DEBFCDBF21E0A2E3B1E001C01D92C8
:1000D000A43EB207E1F711E0A0E0B1E0E8E4F3E10B
:1000E00002C005900D92A233B107D9F710E0CDE51B
:1000F000D0E004C02197FE010E949709CC35D107BA
:10010000C9F70E947D030C94A2090C94000090E0B2
:10011000FC01EC55FF4F2491FC01E057FF4F849107
:10012000882399F090E0880F991FFC01EA57FF4F50
:10013000A591B491FC01E458FF4F859194918FB73C
:10014000F894EC91E22BEC938FBF0895E091470176
:10015000F09148010190F081E02D682F87E491E053
:1001600009942FB7F8948091430190914401A09194
:100170004501B09146012FBF80934F0190935001EC
:10018000A0935101B0935201E0914701F0914801D1
:100190000484F585E02D87E491E0099597FF26C05A
:1001A0002FB7F8948091430190914401A0914501AB
:1001B000B09146012FBF40914F0150915001609185
:1001C000510170915201841B950BA60BB70B409106
:1001D0004B0150914C0160914D0170914E0184177B
:1001E0009507A607B70780F28FEF9FEF089590E07D
:1001F000FC01E859FF4F3491FC01EC55FF4F24916D
:10020000FC01E057FF4FE491EE2309F43BC0332398
:1002100039F1333091F038F43130A9F0323001F552
:1002200084B58F7D12C0373091F03830A1F0343072
:10023000B9F4809180008F7D03C0809180008F771A
:10024000809380000DC084B58F7784BD09C08091F4
:10025000B0008F7703C08091B0008F7D8093B00095
:10026000F0E0EE0FFF1FE458FF4FA591B4918FB758
:10027000F894EC91611103C020952E2301C02E2B20
:100280002C938FBF08953FB7F89480913F019091D0
:100290004001A0914101B091420126B5A89B05C043
:1002A0002F3F19F00196A11DB11D3FBFBA2FA92FF5
:1002B000982F8827820F911DA11DB11DBC01CD0172
:1002C00042E0660F771F881F991F4A95D1F708955E
:1002D000CF92DF92EF92FF920F931F93CF93DF9312
:1002E0006C017A018B01C0E0D0E0CE15DF0589F00A
:1002F000D8016D918D01D601ED91FC910190F081B5
:10030000E02DC6010995892B11F47E0102C02196CA
:10031000ECCFC701DF91CF911F910F91FF90EF902C
:10032000DF90CF900895089580E090E00895FC015B
:10033000538D448D252F30E0842F90E0821B930B4A
:10034000541710F0CF96089501970895FC01918DF0
:10035000828D981761F0828DDF01A80FB11D5D9627
:100360008C91928D9F5F9F73928F90E008958FEF95
:100370009FEF0895FC01918D828D981731F0828D49
:10038000E80FF11D858D90E008958FEF9FEF0895A0
:10039000FC01918D228D892F90E0805C9F4F821B04
:1003A00091098F739927089587E491E00E94C8010D
:1003B00021E0892B09F420E0822F0895FC01848D2F
:1003C000DF01A80FB11DA35ABF4F2C91848D90E07F
:1003D00001968F739927848FA689B7892C93A0895A
:1003E000B1898C9180648C93938D848D981306C011
:1003F0000288F389E02D80818F7D80830895EF92BC
:10040000FF920F931F93CF93DF93EC0181E0888FCE
:100410009B8D8C8D981305C0E889F989808185FDB5
:1004200024C0F62E0B8D10E00F5F1F4F0F731127A6
:10043000E02E8C8DE8120CC00FB607FCFACFE889CD
:10044000F989808185FFF5CFCE010E94DE01F1CFD1
:100450008B8DFE01E80FF11DE35AFF4FF0820B8FE9
:10046000EA89FB898081806207C0EE89FF89608309
:10047000E889F98980818064808381E090E0DF9160
:10048000CF911F910F91FF90EF900895CF93DF933D
:10049000EC01888D8823C9F0EA89FB89808185FD7C
:1004A00005C0A889B9898C9186FD0FC00FB607FCDD
:1004B000F5CF808185FFF2CFA889B9898C9185FF1E
:1004C000EDCFCE010E94DE01E7CFDF91CF910895FD
:1004D00080E090E0892B29F00E94D40181110C94D6
:1004E00000000895E0E8F0E080818F77808389E064
:1004F0000E94870060E089E00C94F700E0E8F0E0FB
:1005000080818068808389E00C948700009769F07F
:10051000FC0101900020E9F73197AF01481B590B0E
:10052000BC0187E491E00C94680180E090E00895BC
:100530008F929F92AF92BF920F931F93CF93DF93AF
:10054000CDB7DEB7A1970FB6F894DEBF0FBECDBF13
:1005500019A2423008F44AE08E010F5D1F4F842E2D
:10056000912CA12CB12CA50194010E947509E62FB4
:10057000B901CA0101501109EA3014F4E05D01C06B
:10058000E95CD801EC93232B242B252B61F7C801C0
:100590000E948602A1960FB6F894DEBF0FBECDBFB3
:1005A000DF91CF911F910F91BF90AF909F908F904F
:1005B00008950E949D091F920F920FB60F92112469
:1005C0002F933F938F939F93AF93BF93809143015A
:1005D00090914401A0914501B091460130913E01B6
:1005E00023E0230F2D3720F40196A11DB11D05C076
:1005F00026E8230F0296A11DB11D20933E01809392
:10060000430190934401A0934501B093460180912A
:100610003F0190914001A0914101B09142010196AA
:10062000A11DB11D80933F0190934001A093410112
:10063000B0934201BF91AF919F918F913F912F91C4
:100640000F900FBE0F901F9018951F920F920FB62C
:100650000F9211242F933F934F935F936F937F9348
:100660008F939F93AF93BF93EF93FF9387E491E0B2
:100670000E94DE01FF91EF91BF91AF919F918F9109
:100680007F916F915F914F913F912F910F900FBE8E
:100690000F901F9018951F920F920FB60F92112472
:1006A0002F938F939F93EF93FF93E0915701F091D6
:1006B00058018081E0915D01F0915E0182FD12C0E0
:1006C0009081809160018F5F8F732091610182170B
:1006D00051F0E0916001F0E0E95BFE4F958F80936F
:1006E000600101C08081FF91EF919F918F912F91C7
:1006F0000F900FBE0F901F901895789484B582606C
:1007000084BD84B5816084BD85B5826085BD85B5B5
:10071000816085BD80916E00816080936E00109233
:1007200081008091810082608093810080918100AE
:10073000816080938100809180008160809380003F
:100740008091B10084608093B1008091B00081609D
:100750008093B00080917A00846080937A008091C9
:100760007A00826080937A0080917A008160809321
:100770007A0080917A00806880937A001092C1009C
:10078000E0915701F091580182E08083E09153019C
:10079000F09154011082E0915501F09156018FECD7
:1007A000808310925F01E0915B01F0915C0186E033
:1007B0008083E0915901F0915A01808180618083AA
:1007C000E0915901F0915A01808188608083E09125
:1007D0005901F0915A01808180688083E09159012C
:1007E000F0915A0180818F7D808310928000109259
:1007F000810010926F0016BA8FEF93E090938700FC
:1008000080938600109289001092880010928B00CD
:1008100010928A0080918100816080938100809194
:100820008000826080938000809181008861809345
:10083000810010928900109288000E94720286E066
:100840000E948700EEE6F0E0E491E33019F150F405
:10085000E130D1F0E230E9F584B5806284BD8FE704
:1008600088BD35C0E73011F1E83049F1E43089F551
:10087000809180008062809380008FE790E0909369
:100880008B0080938A0023C084B5806884BD8FE785
:1008900087BD1DC0809180008068809380008FE7B5
:1008A00090E0909389008093880011C08091B000FF
:1008B00080688093B0008FE78093B30008C0809178
:1008C000B00080628093B0008FE78093B400C0E4F2
:1008D00039C160E086E00E94F700F9CFD1116AC209
:1008E000E130F10509F036C2E0914701F09148018D
:1008F0000284F385E02D87E491E009950E94B10020
:10090000FC01C0970A9760F3EE32F10539F3E1304C
:10091000F10531F3111151C2DD2309F457C2C701AA
:10092000B6010E941F07A50194010E947E076093F3
:100930003A0170933B0180933C0190933D0182E129
:1009400091E00E948602C0903A01D0903B01E09075
:100950003C01F0903D01A7019601C701B6010E943C
:100960007009882309F416C18DE191E00E94860286
:1009700089E291E00E9486022EEA37E441EA5FE3D1
:1009800060913A0170913B0180913C0190913D0151
:100990000E9456082AE038E240EA5BE30E94C3085E
:1009A00020E030E040E05FE30E947E076B017C01C5
:1009B00020E030E0A9010E94180787FF03C0C12C86
:1009C000D12C7601C701B6010E9435097093390117
:1009D000609338018CE291E00E948602C090380159
:1009E000D09039010D2C000CEE08FF08F7FE60C115
:1009F0008DE20E94A60066277727CB016C197D093E
:100A00008E099F094AE00E94980289E291E00E94C3
:100A10008602E0903801F0903901E114F10409F008
:100A20004BC10E94720220E2C0937C0080917A0048
:100A3000806480937A0080917A0086FDFCCF60917B
:100A400078008091790070E0782B80913601909148
:100A50003701680F791F769567957093370160931A
:100A60003601215009F780E090E00E941D072AE03E
:100A700038E240E25CE30E947E07609332017093AB
:100A80003301809334019093350120E030E04AE750
:100A900054E40E947E070E943C094B015C017B01EB
:100AA00020E030E04AE754E460913A0170913B0164
:100AB00080913C0190913D010E947E070E943C097B
:100AC000AB01CB0188199909880F892F881F990BD1
:100AD0008416950608F4FEC04E155F0508F40AC199
:100AE000E0903801F0903901E114F10409F018C1E7
:100AF0000E9472020E9443014B015C0193E0C92EE7
:100B0000D12CE12CF12C0E944301DC01CB0188198E
:100B10009909AA09BB09883E9340A105B10558F07F
:100B200061E0C61AD108E108F10888EE880E83E07A
:100B3000981EA11CB11CC114D104E104F10419F7E1
:100B40000E94680287E491E00E94C8011816190605
:100B50000CF069CF0E94B100FC0197FD17C08D32E7
:100B6000910509F4EBC0C0970A9708F4E7C0EE328C
:100B7000F10509F4E3C0E0914701F09148010284D6
:100B8000F385E02D87E491E00995E4CF60E070E023
:100B9000CB01CDCE46015701E894B7F82FEF3FEFD8
:100BA0004FE75FE7C501B4010E94700981110DC0D4
:100BB0002FEF3FEF4FE75FE7C501B4010E94180731
:100BC00018161CF481E291E0D1CE2FEF3FEF4FE7F2
:100BD0005FE4C701B6010E946B0918161CF485E298
:100BE00091E0C4CE2FEF3FEF4FE75FECC701B601B6
:100BF0000E94180787FDF3CF20E030E0A901C7016C
:100C0000B6010E94180787FF07C08DE20E94A60068
:100C1000F7FAF094F7F8F0942AE037ED43EA5BE353
:100C2000C701B6010E9457084B015C010E943C09B4
:100C30006B017C010E941D079B01AC01C501B40141
:100C40000E9456084B015C014AE0C701B6010E94B0
:100C500098028EE20E94A60020E030E040E251E4DB
:100C6000C501B4010E947E074B015C010E943C0952
:100C70006B01E12CF12C4AE0C701B6010E949802F9
:100C8000C701B6010E941D079B01AC01C501B4015B
:100C90000E94560820E030E040E251E40E947E07C6
:100CA0000E943C0980E090E04AE00E94980260CEF9
:100CB0004AE0C701B601A7CE0E947E02C701E11437
:100CC00064E0F60610F08FEF93E090938900809334
:100CD0008800A9CE20913801309139012F3F63E07F
:100CE00036070CF0F9CE280F391F309339012093C5
:100CF0003801F2CE609138017091390161157105AA
:100D000009F4EECE860F971F97FD05C09093390129
:100D100080933801E5CE1092390110923801E0CE6F
:100D20000E947E02C701E11424E0F20610F08FEF6A
:100D300093E09093890080938800DCCE812C912CE5
:100D400080E8A82E8FE3B82EC12CD12C7601D0E0FC
:100D500010E0C6CDED32F10549F1EE32F10541F179
:100D6000CF01C0970A9708F0BFCDAAE0B0E0A70175
:100D700096010E943C086F01FF0FEE08FF08C60EA7
:100D8000D71EE81EF91E20E3C21AD108E108F108B7
:100D9000DD2309F4A9CD2DEC3CEC4CEC5DE3C50161
:100DA000B4010E947E074B015C019ECD11E09CCDF9
:100DB000D1E09ACD112309F4B2CDF094E094D0940F
:100DC000C094C11CD11CE11CF11CA6CDC701B60109
:100DD0000E941F07ACCDE7E4F1E01382128288EE97
:100DE00093E0A0E0B0E084839583A683B78384E09A
:100DF00091E09183808385EC90E09587848784ECF3
:100E000090E09787868780EC90E0918B808B81ECD7
:100E100090E0938B828B82EC90E0958B848B86ECB8
:100E200090E0978B868B118E128E138E148E089500
:100E30000E945A0708F481E00895E89409C097FBDE
:100E40003EF490958095709561957F4F8F4F9F4FA1
:100E50009923A9F0F92F96E9BB279395F6958795E5
:100E600077956795B795F111F8CFFAF4BB0F11F4A8
:100E700060FF1BC06F5F7F4F8F4F9F4F16C088234F
:100E800011F096E911C0772321F09EE8872F762F85
:100E900005C0662371F096E8862F70E060E02AF0C6
:100EA0009A95660F771F881FDAF7880F96958795B2
:100EB00097F90895990F0008550FAA0BE0E8FEEF87
:100EC00016161706E807F907C0F012161306E4070E
:100ED000F50798F0621B730B840B950B39F40A2607
:100EE00061F0232B242B252B21F408950A2609F4E5
:100EF000A140A6958FEF811D811D08950E94910745
:100F00000C9402080E94F40738F00E94FB0720F0BE
:100F1000952311F00C94EB070C94F10711240C9419
:100F200036080E94130870F3959FC1F3950F50E0A7
:100F3000551F629FF001729FBB27F00DB11D639F8B
:100F4000AA27F00DB11DAA1F649F6627B00DA11D31
:100F5000661F829F2227B00DA11D621F739FB00DD7
:100F6000A11D621F839FA00D611D221F749F332747
:100F7000A00D611D231F849F600D211D822F762FE0
:100F80006A2F11249F5750409AF0F1F088234AF0BD
:100F9000EE0FFF1FBB1F661F771F881F9150504029
:100FA000A9F79E3F510580F00C94EB070C9436088E
:100FB0005F3FE4F3983ED4F3869577956795B795B0
:100FC000F795E7959F5FC1F7FE2B880F911D9695CA
:100FD000879597F9089597F99F6780E870E060E03A
:100FE00008959FEF80EC089500240A9416161706C2
:100FF00018060906089500240A941216130614060A
:1010000005060895092E0394000C11F4882352F06C
:10101000BB0F40F4BF2B11F460FF04C06F5F7F4F24
:101020008F4F9F4F089557FD9058440F551F59F00B
:101030005F3F71F04795880F97FB991F61F09F3FC5
:1010400079F087950895121613061406551FF2CFEE
:101050004695F1DF08C0161617061806991FF1CF3E
:1010600086957105610508940895E894BB27662765
:101070007727CB0197F908950E944708A59F900D07
:10108000B49F900DA49F800D911D11240895A29FDF
:10109000B001B39FC001A39F700D811D1124911D4C
:1010A000B29F700D811D1124911D08955058BB27CA
:1010B000AA270E946E080C9402080E94F40738F0D8
:1010C0000E94FB0720F039F49F3F19F426F40C949A
:1010D000F1070EF4E095E7FB0C94EB07E92F0E9473
:1010E000130858F3BA17620773078407950720F0AF
:1010F00079F4A6F50C9435080EF4E0950B2EBA2F72
:10110000A02D0B01B90190010C01CA01A00111240D
:10111000FF27591B99F0593F50F4503E68F11A16B9
:10112000F040A22F232F342F4427585FF3CF46954A
:1011300037952795A795F0405395C9F77EF41F166C
:10114000BA0B620B730B840BBAF09150A1F0FF0F36
:10115000BB1F661F771F881FC2F70EC0BA0F621F22
:10116000731F841F48F4879577956795B795F79512
:101170009E3F08F0B0CF9395880F08F09927EE0FA7
:101180009795879508950E94D7080C9402080E94AD
:10119000FB0758F00E94F40740F029F45F3F29F064
:1011A0000C94EB0751110C9436080C94F1070E9433
:1011B000130868F39923B1F3552391F3951B550B4D
:1011C000BB27AA2762177307840738F09F5F5F4F1A
:1011D000220F331F441FAA1FA9F335D00E2E3AF059
:1011E000E0E832D091505040E695001CCAF72BD071
:1011F000FE2F29D0660F771F881FBB1F26173707C2
:101200004807AB07B0E809F0BB0B802DBF01FF27F3
:1012100093585F4F3AF09E3F510578F00C94EB07DE
:101220000C9436085F3FE4F3983ED4F386957795A7
:101230006795B795F7959F5FC9F7880F911D9695AC
:10124000879597F90895E1E0660F771F881FBB1F08
:10125000621773078407BA0720F0621B730B840BB5
:10126000BA0BEE1F88F7E09508950E943C09689438
:10127000B1110C94360808950E941B0888F09F57FE
:1012800098F0B92F9927B751B0F0E1F0660F771FAA
:10129000881F991F1AF0BA95C9F714C0B13091F0A0
:1012A0000E943508B1E008950C943508672F782F17
:1012B0008827B85F39F0B93FCCF386957795679565
:1012C000B395D9F73EF490958095709561957F4FD1
:1012D0008F4F9F4F08950E945A0708F48FEF08958B
:1012E0000E945A07880B990B0895A1E21A2EAA1B97
:1012F000BB1BFD010DC0AA1FBB1FEE1FFF1FA217C6
:10130000B307E407F50720F0A21BB30BE40BF50BC2
:10131000661F771F881F991F1A9469F7609570954B
:10132000809590959B01AC01BD01CF010895EE0F12
:10133000FF1F0590F491E02D099481E090E0F8946E
:081340000C94A209F894FFCF00
:1013480000000000FF01680197014602C801A601DC
:10135800BA01536574506F696E743A20006E616EFD
:1013680000696E66006F7666000D0A0050574D3AA8
:02137800200053
:00000001FF
